:100266002020202020202020202020202020202088
:1002760000544154412053414C5420316B672000B7
:1002860042495343554954204F52454F0044414932
:1002960052594D494C4B2053494C4B004D41474711
:1002A6004920313030676D7300535552462045580A
:1002B60043454C204D41544943004B495353414E0D
:1002C600204B45544348555000434F4C47415445F5
:1002D60020544F54414C004B55524B55524500202B
:1002E6004F4C442053504943452044454F0020205D
:1002F6002020206974656D203130202020200020C8
:10030600202020206974656D2031312020202000B6
:1003160020202020206974656D2031322020202085
:10032600002020202052733A200020202020205236
:10033600656D6F76656420202020004054322300CE
:10034600404632230020534D4152542054524F4CC4
:100356004C45592020002020202020535953544535
:100366004D2020202020002020494E495449414C50
:10037600495A494E4720200020202020205A49472C
:1003860042454520202020200054524F4C4C4559D0
:10039600204E6F3A203030322000202020544F5417
:1003A600414C3A2000202053454E44494E472042B6
:1003B600494C4C2020002020202042494C4C205300
:1003C600454E5420202000202020205448414E4BEA
:1003D60020594F55202020002020205649534954AB
:1003E60020414741494E20200035353030304445C4
:1003F60030453035380035353030304444304432BD
:1004060035410035353030304443374230324600CE
:1004160035353030304435373741373500353530AE
:10042600303044384130464444003535303030446D
:100436003644354536420035353030304441453155
:100446003945460035353030304442363435414240
:1004560000353530303043383038373545003135A2
:100466003030314246413631393500313231323160
:100476003231323132313100313231323132313290
:1004860031323231005072657373204144442F5229
:06049600454D4F564500E4
:100BE7001A2B026602770286029302A202AF02C0A4
:100BF70002CF02DD02E502F40305031616550000D5
:100C07000012000C0064000A01540078005F00968F
:100C1700015E003FC109C108C10A016C00026D00F5
:0E0C270000C10CC10DC10EC10FC10B016F0049
:0C0D9200EFC454F0FFE520540F4FF52093
:100D9E00A2049284A2059285A2069286A207928749
:010DAE002222
:100B7B00C282EF54F0FEE520540F4EF520120D9E6D
:100B8B00D283E4F528F5290529E5297002052864A7
:100B9B0065452870F2C283E4F528F5290529E52976
:100BAB0070020528B400F5E528B401F0120D92D2BD
:100BBB0083E4F528F5290529E529700205286465E4
:100BCB00452870F2C283E4F528F5290529E529703B
:0C0BDB00020528B400F5E528B401F02262
:050B0A00540F4430FF10
:100B0F00D282EF54F0FEE520540F4EF520120D9EC9
:100B1F00D283E4F528F5290529E529700205286413
:100B2F0065452870F2C283E4F528F5290529E529E2
:100B3F0070020528B400F5E528B401F0120D92D229
:100B4F0083E4F528F5290529E52970020528646550
:100B5F00452870F2C283E4F528F5290529E52970A7
:0C0B6F00020528B400F5E528B401F022CE
:100D74007F33120B7B7F32120B7B7F28120B7B7F1E
:0E0D84000C120B7B7F06120B7B7F01020B7B98
:080C36007A0279667BFF7D80E4
:100C3E008B098A0A890BAF05120B7BE4F57DAB0994
:100C4E00AA0AA90B857D8275830012003FF57CD31D
:100C5E009400400EAF7C120B0F057DE57DC3941002
:030C6E0040DC2245
:04095B00AB07AA0636
:10095F007C277D1012006C8F097C277D10AF03AEB2
:10096F000212006CAA04AB057C037DE8AF03AE0254
:10097F0012006C8F0A7C037DE8AF03AE0212006C8D
:10098F00AA04AB057C007D64AF03AE0212006C8F2E
:10099F000B7C007D64AF03AE0212006CAA04AB05A2
:1009AF007C007D0AAF03AE0212006C8F0CAE02AF5B
:1009BF00037C007D0A12006CE5096007120B0AE543
:1009CF000A8004E50A6007120B0AE50B8004E50BA9
:1009DF006007120B0AE50C8004E50C6003120B0A8A
:0909EF00ED540F4430FF020B0F20
:0C000E00759852758920758DFDD28E22E8
:030DAF002430FFEE
:080DB2008F993099FDC29922CE
:100CA500EF75F06484FEEF75F06484AFF0EF75F0D6
:100CB5000A84FDEF75F00A84ACF0EE6006120DAF04
:100CC500ED8003ED6003120DAFEC2430FF020DB291
:100D2B008B088A09890AAB08AA09A90A120026604E
:100D3B0013050AE50A7002050914F9120026FF12C1
:050D4B000DB280E22260
:0408B200AB07AA06E0
:1008B6007C277D1012006C8F0D7C277D10AF03AE58
:1008C6000212006CAA04AB057C037DE8AF03AE02FE
:1008D60012006C8F0E7C037DE8AF03AE0212006C33
:1008E600AA04AB057C007D64AF03AE0212006C8FD8
:1008F6000F7C007D64AF03AE0212006CAA04AB0548
:100906007C007D0AAF03AE0212006C8F10AE02AF00
:10091600037C007D0A12006CAE05E50D600A2430EA
:10092600FF120DB2E50E8004E50E600A2430FF12B8
:100936000DB2E50F8004E50F600A2430FF120DB2F8
:10094600E5108004E51060062430FF120DB2EE2497
:0509560030FF020DB2AC
:040D50007FC87E00DA
:100D5400E4FDFCC3ED9FEC9E5015E4FBFA0BBB00D5
:0F0D6400010ABA04F8BBFBF50DBD00010C80E4D9
:010D7300225D
:100C7100AC07EC25E0242BF8E6FE08E6AA06F912FB
:100C81000C3A7BFF7A0279667DC0120C3E7BFF7ABB
:100C9100037927120C3EEC25E02455F8E6FE08E620
:040CA100FF02095BEA
:1007F7008F08E508C3940150030208B1E508D394B4
:100807000A40030208B1746F2FF8E67019120C71D1
:10081700E50825E02455F8E6FE08E6256EF56EEEB8
:10082700356DF56D80377A04798B120C3AE508251A
:10083700E0242BF8E6FE08E6AA06F97BFF7DC01246
:100847000C3E30A40320A5FA7F057E00120D54301C
:10085700A40320A5FA20A40DAF08120C71746F250C
:1008670008F8760122D3E56E9400E56D94004017F1
:10087700E50825E02455F8E6FE08E6FFC3E56E9F88
:10088700F56EE56D9EF56D746F2508F8E4F6E508DD
:1008970025E0242BF8E6FE08E6AA06F9120C3A7BB7
:0B08A700FF7A0379307DC0120C3E2266
:100CD5007F0A78227C007D007BFF7A03794112022E
:100CE50049EF70037F012278227C007D007BFF7A2B
:0E0CF500037946120249EF70037F02227F004E
:010D030022CD
:100720007F0A78457C007D007BFF7A0379EF120217
:1007300049EF70037F012278457C007D007BFF7AC2
:100740000379FC120249EF70037F022278457C0096
:100750007D007BFF7A047909120249EF70037F0361
:100760002278457C007D007BFF7A047916120249CD
:10077000EF70037F042278457C007D007BFF7A04C4
:100780007923120249EF70037F052278457C007DB2
:10079000007BFF7A047930120249EF70037F062252
:1007A00078457C007D007BFF7A04793D120249EF99
:1007B00070037F072278457C007D007BFF7A0479F7
:1007C0004A120249EF70037F082278457C007D00C1
:1007D0007BFF7A047957120249EF70037F09227870
:1007E000457C007D007BFF7A047964120249EF703A
:0607F000037F0A227F00D6
:0107F60022E0
:03000B00020D04DF
:100D0400C0E0C0D0052AC28DE52AC39428400975E5
:100D14002A00D20BC28C800AC20B758C4B758AFDDB
:070D2400D28CD0D0D0E032E8
:10061700E4FF0FFE120D54E41F0F247FF87640E528
:1006270070B401100E0F747F2EF876310E0F747FA1
:100637002EF8762CE571B40112AE070F747F2EF8F1
:100647007632AE070F747F2EF8762CE572B401125E
:10065700AE070F747F2EF87633AE070F747F2EF830
:10066700762CE573B40112AE070F747F2EF876343B
:10067700AE070F747F2EF8762CE574B40112AE071F
:100687000F747F2EF87635AE070F747F2EF8762C11
:10069700E575B40112AE070F747F2EF87636AE07F4
:1006A7000F747F2EF8762CE576B40112AE070F741F
:1006B7007F2EF87637AE070F747F2EF8762CE57706
:1006C700B40112AE070F747F2EF87638AE070F7499
:1006D7007F2EF8762CE578B40112AE070F747F2EC3
:1006E700F87639AE070F747F2EF8762CE579B401CA
:1006F70012AE070F747F2EF87641AE070F747F2E68
:10070700F8762C1F747F2FF876230F747F2FF8E469
:09071700F6FB7A00797F020D2B3C
:10049C00D2A4D2A5E4F52AC2B712000E7F0AFE122E
:1004AC000D54120D747BFF7A03794B7D80120C3E38
:1004BC007BFF7A03795C7DC0120C3E120D507BFFE2
:1004CC007A03796D7D80120C3E7BFF7A03797E7DF9
:1004DC00C0120C3E7F587E02120D547BFF7A0379BA
:1004EC008F7D80120C3E7BFF7A0279667DC0120CE8
:1004FC003E438901758C4B758AFDC298D2AFD2A947
:10050C00C298D2ACD2A6300A17C20AC2AC120720CB
:10051C008F541207F7D28DE4F56BF56CC298D2AC00
:10052C00300B25120C367BFF7A0279667DC0120CDB
:10053C003E7BFF7A0379A0120C3E7FC9120B7BAF76
:10054C006EAE6D12095BC20B3008BBC2ACC2081296
:10055C000CD58F54E55464017047120C367BFF7A2E
:10056C000279667DC0120C3E7BFF7A0379AB7D80ED
:10057C00120C3EE4F57ED2B71206177F1E7E0012D7
:10058C000D54C2B7120D54057EE57EC3940540E6AA
:10059C007F647E00120D547BFF7A0379BC7D8080D2
:1005AC005BE55464027058F56DF56EF57E746F253D
:1005BC007EF8E4F6057EE57EB40CF2120C367BFF79
:1005CC007A0279667DC0120C3E7BFF7A0379CD7D71
:1005DC0080120C3ED2B7120D50C2B77BFF7A037952
:1005EC00DE7D80120C3E120D507BFF7A03798F7DDD
:1005FC0080120C3E7BFF7A0279667DC0120C3EE4C1
:0B060C00F56BF56CC298D2AC02051231
:03002300020A844A
:100A8400C0E0C0D075D000C000C00730986DC298D7
:100A940085997BE57B640D6064E57B640A605EE5B3
:100AA4007BB44005D209756B0030090AAF6B056B46
:100AB40074222FF8A67BE57BB42311C209AF6B0522
:100AC4006B74222FF87600756B00D20820092EE58E
:100AD4007B64236028E56CD3940B500AAF6C056CDF
:100AE40074452FF8A67BE56CB40C12FF056C7445B5
:100AF4002FF87600756C00D20A8002C299D007D014
:060B040000D0D0D0E03269
:030000000209F8FA
:0C09F800787FE4F6D8FD7581A1020A3F6B
:10002600BB010689828A83E0225002E722BBFE02D8
:09003600E32289828A83E493220B
:10003F00BB010CE58229F582E5833AF583E0225076
:10004F0006E92582F8E622BBFE06E92582F8E222C0
:0D005F00E58229F582E5833AF583E49322DA
:10006C00BC000BBE0029EF8DF084FFADF022E4CC78
:10007C00F875F008EF2FFFEE33FEEC33FCEE9DEC41
:10008C00984005FCEE9DFE0FD5F0E9E4CEFD22ED87
:10009C00F8F5F0EE8420D21CFEADF075F008EF2FD1
:1000AC00FFED33FD4007985006D5F0F222C398FDC2
:0500BC000FD5F0EA225F
:1000C100E3F5F009E208B5F06D606B80F3E3F5F05C
:1000D10009E608B5F060605E80F387F009E608B5CF
:1000E100F054605280F487F009E208B5F0486046A8
:1000F10080F488828C8387F009E0A3B5F0386036FC
:1001010080F488828C8387F009E493A3B5F027609B
:100111002580F388828C83E3F5F009E0A3B5F0161E
:10012100601480F388828C83E3F5F009E493A3B52E
:10013100F004600280F20201EC808580E7808E800D
:10014100D2803C8015806C807E809B80B5808B80C6
:10015100A1804F8070803A02020289828A83ECFA80
:10016100E493F5F0A3C8C582C8CCC583CCE493A3BE
:10017100C8C582C8CCC583CCB5F070606E80E189FA
:10018100828A83E493F5F0A3E208B5F05E605C80B7
:10019100F289828A83E0F5F0A3E608B5F04D604B61
:1001A10080F389828A83E0F5F0A3E208B5F03C6030
:1001B1003A80F389828A83E493F5F0A3E608B5F0E7
:1001C1002A602880F2805D89828A83ECFAE493F5C3
:1001D100F0A3C8C582C8CCC583CCE0A3C8C582C87A
:1001E100CCC583CCB5F004600280E27F00F845F015
:1001F100600EE863F0806480D395F01F40027F01B8
:100201002289828A83ECFAE0F5F0A3C8C582C8CCC2
:10021100C583CCE0A3C8C582C8CCC583CCB5F0CB1F
:1002210060C980E389828A83ECFAE0F5F0A3C8C54E
:1002310082C8CCC583CCE493A3C8C582C8CCC5838E
:10024100CCB5F0A760A580E288F0ED2402B40400EB
:100251005099F582EB2402B40400508F2323458288
:050261002390013A7337
:100A040002049CE493A3F8E493A34003F68001F268
:100A140008DFF48029E493A3F85407240CC8C333F3
:100A2400C4540F4420C8834004F456800146F6DFC2
:100A3400E4800B0102040810204080900BE7E47E60
:100A4400019360BCA3FF543F30E509541FFEE493B7
:100A5400A360010ECF54C025E060A840B8E493A37E
:100A6400FAE493A3F8E493A3C8C582C8CAC583CAA9
:100A7400F0A3C8C582C8CAC583CADFE9DEE780BE61
:010C350000BE
:00000001FF
